{
  "_format": "hh-sol-artifact-1",
  "contractName": "BetaCoin",
  "sourceName": "contracts/Token.sol",
  "abi": [
    {
      "inputs": [
        {
          "internalType": "address",
          "name": "_owner",
          "type": "address"
        },
        {
          "internalType": "uint256",
          "name": "initialSupply",
          "type": "uint256"
        },
        {
          "internalType": "string",
          "name": "initialMetadataURI",
          "type": "string"
        }
      ],
      "stateMutability": "nonpayable",
      "type": "constructor"
    },
    {
      "inputs": [
        {
          "internalType": "address",
          "name": "spender",
          "type": "address"
        },
        {
          "internalType": "uint256",
          "name": "allowance",
          "type": "uint256"
        },
        {
          "internalType": "uint256",
          "name": "needed",
          "type": "uint256"
        }
      ],
      "name": "ERC20InsufficientAllowance",
      "type": "error"
    },
    {
      "inputs": [
        {
          "internalType": "address",
          "name": "sender",
          "type": "address"
        },
        {
          "internalType": "uint256",
          "name": "balance",
          "type": "uint256"
        },
        {
          "internalType": "uint256",
          "name": "needed",
          "type": "uint256"
        }
      ],
      "name": "ERC20InsufficientBalance",
      "type": "error"
    },
    {
      "inputs": [
        {
          "internalType": "address",
          "name": "approver",
          "type": "address"
        }
      ],
      "name": "ERC20InvalidApprover",
      "type": "error"
    },
    {
      "inputs": [
        {
          "internalType": "address",
          "name": "receiver",
          "type": "address"
        }
      ],
      "name": "ERC20InvalidReceiver",
      "type": "error"
    },
    {
      "inputs": [
        {
          "internalType": "address",
          "name": "sender",
          "type": "address"
        }
      ],
      "name": "ERC20InvalidSender",
      "type": "error"
    },
    {
      "inputs": [
        {
          "internalType": "address",
          "name": "spender",
          "type": "address"
        }
      ],
      "name": "ERC20InvalidSpender",
      "type": "error"
    },
    {
      "anonymous": false,
      "inputs": [
        {
          "indexed": true,
          "internalType": "address",
          "name": "owner",
          "type": "address"
        },
        {
          "indexed": true,
          "internalType": "address",
          "name": "spender",
          "type": "address"
        },
        {
          "indexed": false,
          "internalType": "uint256",
          "name": "value",
          "type": "uint256"
        }
      ],
      "name": "Approval",
      "type": "event"
    },
    {
      "anonymous": false,
      "inputs": [
        {
          "indexed": true,
          "internalType": "address",
          "name": "from",
          "type": "address"
        },
        {
          "indexed": true,
          "internalType": "address",
          "name": "to",
          "type": "address"
        },
        {
          "indexed": false,
          "internalType": "uint256",
          "name": "value",
          "type": "uint256"
        }
      ],
      "name": "Transfer",
      "type": "event"
    },
    {
      "inputs": [
        {
          "internalType": "address",
          "name": "owner",
          "type": "address"
        },
        {
          "internalType": "address",
          "name": "spender",
          "type": "address"
        }
      ],
      "name": "allowance",
      "outputs": [
        {
          "internalType": "uint256",
          "name": "",
          "type": "uint256"
        }
      ],
      "stateMutability": "view",
      "type": "function"
    },
    {
      "inputs": [
        {
          "internalType": "address",
          "name": "spender",
          "type": "address"
        },
        {
          "internalType": "uint256",
          "name": "value",
          "type": "uint256"
        }
      ],
      "name": "approve",
      "outputs": [
        {
          "internalType": "bool",
          "name": "",
          "type": "bool"
        }
      ],
      "stateMutability": "nonpayable",
      "type": "function"
    },
    {
      "inputs": [
        {
          "internalType": "address",
          "name": "account",
          "type": "address"
        }
      ],
      "name": "balanceOf",
      "outputs": [
        {
          "internalType": "uint256",
          "name": "",
          "type": "uint256"
        }
      ],
      "stateMutability": "view",
      "type": "function"
    },
    {
      "inputs": [],
      "name": "contractURI",
      "outputs": [
        {
          "internalType": "string",
          "name": "",
          "type": "string"
        }
      ],
      "stateMutability": "view",
      "type": "function"
    },
    {
      "inputs": [],
      "name": "decimals",
      "outputs": [
        {
          "internalType": "uint8",
          "name": "",
          "type": "uint8"
        }
      ],
      "stateMutability": "view",
      "type": "function"
    },
    {
      "inputs": [],
      "name": "deposit",
      "outputs": [],
      "stateMutability": "payable",
      "type": "function"
    },
    {
      "inputs": [
        {
          "internalType": "address",
          "name": "account",
          "type": "address"
        },
        {
          "internalType": "uint256",
          "name": "amount",
          "type": "uint256"
        }
      ],
      "name": "mint",
      "outputs": [],
      "stateMutability": "nonpayable",
      "type": "function"
    },
    {
      "inputs": [],
      "name": "name",
      "outputs": [
        {
          "internalType": "string",
          "name": "",
          "type": "string"
        }
      ],
      "stateMutability": "view",
      "type": "function"
    },
    {
      "inputs": [],
      "name": "owner",
      "outputs": [
        {
          "internalType": "address",
          "name": "",
          "type": "address"
        }
      ],
      "stateMutability": "view",
      "type": "function"
    },
    {
      "inputs": [
        {
          "internalType": "address payable",
          "name": "_to",
          "type": "address"
        }
      ],
      "name": "send",
      "outputs": [],
      "stateMutability": "payable",
      "type": "function"
    },
    {
      "inputs": [],
      "name": "symbol",
      "outputs": [
        {
          "internalType": "string",
          "name": "",
          "type": "string"
        }
      ],
      "stateMutability": "view",
      "type": "function"
    },
    {
      "inputs": [],
      "name": "totalSupply",
      "outputs": [
        {
          "internalType": "uint256",
          "name": "",
          "type": "uint256"
        }
      ],
      "stateMutability": "view",
      "type": "function"
    },
    {
      "inputs": [
        {
          "internalType": "address",
          "name": "to",
          "type": "address"
        },
        {
          "internalType": "uint256",
          "name": "value",
          "type": "uint256"
        }
      ],
      "name": "transfer",
      "outputs": [
        {
          "internalType": "bool",
          "name": "",
          "type": "bool"
        }
      ],
      "stateMutability": "nonpayable",
      "type": "function"
    },
    {
      "inputs": [
        {
          "internalType": "address",
          "name": "from",
          "type": "address"
        },
        {
          "internalType": "address",
          "name": "to",
          "type": "address"
        },
        {
          "internalType": "uint256",
          "name": "value",
          "type": "uint256"
        }
      ],
      "name": "transferFrom",
      "outputs": [
        {
          "internalType": "bool",
          "name": "",
          "type": "bool"
        }
      ],
      "stateMutability": "nonpayable",
      "type": "function"
    },
    {
      "stateMutability": "payable",
      "type": "receive"
    }
  ],
  "bytecode": "0x60806040523480156200001157600080fd5b5060405162001e9d38038062001e9d833981810160405281019062000037919062000627565b6040518060400160405280600481526020017f55534454000000000000000000000000000000000000000000000000000000008152506040518060400160405280600481526020017f55534454000000000000000000000000000000000000000000000000000000008152508160039081620000b49190620008e3565b508060049081620000c69190620008e3565b505050620000db83836200013760201b60201c565b82600560006101000a81548173ffffffffffffffffffffffffffffffffffffffff021916908373ffffffffffffffffffffffffffffffffffffffff16021790555080600690816200012d9190620008e3565b5050505062000acd565b600073ffffffffffffffffffffffffffffffffffffffff168273ffffffffffffffffffffffffffffffffffffffff1603620001ac5760006040517fec442f05000000000000000000000000000000000000000000000000000000008152600401620001a39190620009db565b60405180910390fd5b620001c060008383620001c460201b60201c565b5050565b600073ffffffffffffffffffffffffffffffffffffffff168373ffffffffffffffffffffffffffffffffffffffff16036200021a5780600260008282546200020d919062000a27565b92505081905550620002f0565b60008060008573ffffffffffffffffffffffffffffffffffffffff1673ffffffffffffffffffffffffffffffffffffffff16815260200190815260200160002054905081811015620002a9578381836040517fe450d38c000000000000000000000000000000000000000000000000000000008152600401620002a09392919062000a73565b60405180910390fd5b8181036000808673ffffffffffffffffffffffffffffffffffffffff1673ffffffffffffffffffffffffffffffffffffffff16815260200190815260200160002081905550505b600073ffffffffffffffffffffffffffffffffffffffff168273ffffffffffffffffffffffffffffffffffffffff16036200033b578060026000828254039250508190555062000388565b806000808473ffffffffffffffffffffffffffffffffffffffff1673ffffffffffffffffffffffffffffffffffffffff168152602001908152602001600020600082825401925050819055505b8173ffffffffffffffffffffffffffffffffffffffff168373ffffffffffffffffffffffffffffffffffffffff167fddf252ad1be2c89b69c2b068fc378daa952ba7f163c4a11628f55a4df523b3ef83604051620003e7919062000ab0565b60405180910390a3505050565b6000604051905090565b600080fd5b600080fd5b600073ffffffffffffffffffffffffffffffffffffffff82169050919050565b6000620004358262000408565b9050919050565b620004478162000428565b81146200045357600080fd5b50565b60008151905062000467816200043c565b92915050565b6000819050919050565b62000482816200046d565b81146200048e57600080fd5b50565b600081519050620004a28162000477565b92915050565b600080fd5b600080fd5b6000601f19601f8301169050919050565b7f4e487b7100000000000000000000000000000000000000000000000000000000600052604160045260246000fd5b620004fd82620004b2565b810181811067ffffffffffffffff821117156200051f576200051e620004c3565b5b80604052505050565b600062000534620003f4565b9050620005428282620004f2565b919050565b600067ffffffffffffffff821115620005655762000564620004c3565b5b6200057082620004b2565b9050602081019050919050565b60005b838110156200059d57808201518184015260208101905062000580565b60008484015250505050565b6000620005c0620005ba8462000547565b62000528565b905082815260208101848484011115620005df57620005de620004ad565b5b620005ec8482856200057d565b509392505050565b600082601f8301126200060c576200060b620004a8565b5b81516200061e848260208601620005a9565b91505092915050565b600080600060608486031215620006435762000642620003fe565b5b6000620006538682870162000456565b9350506020620006668682870162000491565b925050604084015167ffffffffffffffff8111156200068a576200068962000403565b5b6200069886828701620005f4565b9150509250925092565b600081519050919050565b7f4e487b7100000000000000000000000000000000000000000000000000000000600052602260045260246000fd5b60006002820490506001821680620006f557607f821691505b6020821081036200070b576200070a620006ad565b5b50919050565b60008190508160005260206000209050919050565b60006020601f8301049050919050565b600082821b905092915050565b600060088302620007757fffffffffffffffffffffffffffffffffffffffffffffffffffffffffffffffff8262000736565b62000781868362000736565b95508019841693508086168417925050509392505050565b6000819050919050565b6000620007c4620007be620007b8846200046d565b62000799565b6200046d565b9050919050565b6000819050919050565b620007e083620007a3565b620007f8620007ef82620007cb565b84845462000743565b825550505050565b600090565b6200080f62000800565b6200081c818484620007d5565b505050565b5b8181101562000844576200083860008262000805565b60018101905062000822565b5050565b601f82111562000893576200085d8162000711565b620008688462000726565b8101602085101562000878578190505b62000890620008878562000726565b83018262000821565b50505b505050565b600082821c905092915050565b6000620008b86000198460080262000898565b1980831691505092915050565b6000620008d38383620008a5565b9150826002028217905092915050565b620008ee82620006a2565b67ffffffffffffffff8111156200090a5762000909620004c3565b5b620009168254620006dc565b6200092382828562000848565b600060209050601f8311600181146200095b576000841562000946578287015190505b620009528582620008c5565b865550620009c2565b601f1984166200096b8662000711565b60005b8281101562000995578489015182556001820191506020850194506020810190506200096e565b86831015620009b55784890151620009b1601f891682620008a5565b8355505b6001600288020188555050505b505050505050565b620009d58162000428565b82525050565b6000602082019050620009f26000830184620009ca565b92915050565b7f4e487b7100000000000000000000000000000000000000000000000000000000600052601160045260246000fd5b600062000a34826200046d565b915062000a41836200046d565b925082820190508082111562000a5c5762000a5b620009f8565b5b92915050565b62000a6d816200046d565b82525050565b600060608201905062000a8a6000830186620009ca565b62000a99602083018562000a62565b62000aa8604083018462000a62565b949350505050565b600060208201905062000ac7600083018462000a62565b92915050565b6113c08062000add6000396000f3fe6080604052600436106100e15760003560e01c806370a082311161007f578063a9059cbb11610059578063a9059cbb146102c0578063d0e30db0146102fd578063dd62ed3e14610307578063e8a3d48514610344576100e8565b806370a082311461022d5780638da5cb5b1461026a57806395d89b4114610295576100e8565b806323b872dd116100bb57806323b872dd14610180578063313ce567146101bd5780633e58c58c146101e857806340c10f1914610204576100e8565b806306fdde03146100ed578063095ea7b31461011857806318160ddd14610155576100e8565b366100e857005b600080fd5b3480156100f957600080fd5b5061010261036f565b60405161010f9190610e65565b60405180910390f35b34801561012457600080fd5b5061013f600480360381019061013a9190610f20565b610401565b60405161014c9190610f7b565b60405180910390f35b34801561016157600080fd5b5061016a610424565b6040516101779190610fa5565b60405180910390f35b34801561018c57600080fd5b506101a760048036038101906101a29190610fc0565b61042e565b6040516101b49190610f7b565b60405180910390f35b3480156101c957600080fd5b506101d261045d565b6040516101df919061102f565b60405180910390f35b61020260048036038101906101fd9190611088565b610466565b005b34801561021057600080fd5b5061022b60048036038101906102269190610f20565b610516565b005b34801561023957600080fd5b50610254600480360381019061024f91906110b5565b610524565b6040516102619190610fa5565b60405180910390f35b34801561027657600080fd5b5061027f61056c565b60405161028c91906110f1565b60405180910390f35b3480156102a157600080fd5b506102aa610592565b6040516102b79190610e65565b60405180910390f35b3480156102cc57600080fd5b506102e760048036038101906102e29190610f20565b610624565b6040516102f49190610f7b565b60405180910390f35b610305610647565b005b34801561031357600080fd5b5061032e6004803603810190610329919061110c565b61069c565b60405161033b9190610fa5565b60405180910390f35b34801561035057600080fd5b50610359610723565b6040516103669190610e65565b60405180910390f35b60606003805461037e9061117b565b80601f01602080910402602001604051908101604052809291908181526020018280546103aa9061117b565b80156103f75780601f106103cc576101008083540402835291602001916103f7565b820191906000526020600020905b8154815290600101906020018083116103da57829003601f168201915b5050505050905090565b60008061040c6107b5565b90506104198185856107bd565b600191505092915050565b6000600254905090565b6000806104396107b5565b90506104468582856107cf565b610451858585610863565b60019150509392505050565b60006012905090565b60008173ffffffffffffffffffffffffffffffffffffffff163460405161048c906111dd565b60006040518083038185875af1925050503d80600081146104c9576040519150601f19603f3d011682016040523d82523d6000602084013e6104ce565b606091505b5050905080610512576040517f08c379a00000000000000000000000000000000000000000000000000000000081526004016105099061123e565b60405180910390fd5b5050565b6105208282610957565b5050565b60008060008373ffffffffffffffffffffffffffffffffffffffff1673ffffffffffffffffffffffffffffffffffffffff168152602001908152602001600020549050919050565b600560009054906101000a900473ffffffffffffffffffffffffffffffffffffffff1681565b6060600480546105a19061117b565b80601f01602080910402602001604051908101604052809291908181526020018280546105cd9061117b565b801561061a5780601f106105ef5761010080835404028352916020019161061a565b820191906000526020600020905b8154815290600101906020018083116105fd57829003601f168201915b5050505050905090565b60008061062f6107b5565b905061063c818585610863565b600191505092915050565b6000341161068a576040517f08c379a0000000000000000000000000000000000000000000000000000000008152600401610681906112d0565b60405180910390fd5b60003490506106993382610957565b50565b6000600160008473ffffffffffffffffffffffffffffffffffffffff1673ffffffffffffffffffffffffffffffffffffffff16815260200190815260200160002060008373ffffffffffffffffffffffffffffffffffffffff1673ffffffffffffffffffffffffffffffffffffffff16815260200190815260200160002054905092915050565b6060600680546107329061117b565b80601f016020809104026020016040519081016040528092919081815260200182805461075e9061117b565b80156107ab5780601f10610780576101008083540402835291602001916107ab565b820191906000526020600020905b81548152906001019060200180831161078e57829003601f168201915b5050505050905090565b600033905090565b6107ca83838360016109d9565b505050565b60006107db848461069c565b90507fffffffffffffffffffffffffffffffffffffffffffffffffffffffffffffffff811461085d578181101561084d578281836040517ffb8f41b2000000000000000000000000000000000000000000000000000000008152600401610844939291906112f0565b60405180910390fd5b61085c848484840360006109d9565b5b50505050565b600073ffffffffffffffffffffffffffffffffffffffff168373ffffffffffffffffffffffffffffffffffffffff16036108d55760006040517f96c6fd1e0000000000000000000000000000000000000000000000000000000081526004016108cc91906110f1565b60405180910390fd5b600073ffffffffffffffffffffffffffffffffffffffff168273ffffffffffffffffffffffffffffffffffffffff16036109475760006040517fec442f0500000000000000000000000000000000000000000000000000000000815260040161093e91906110f1565b60405180910390fd5b610952838383610bb0565b505050565b600073ffffffffffffffffffffffffffffffffffffffff168273ffffffffffffffffffffffffffffffffffffffff16036109c95760006040517fec442f050000000000000000000000000000000000000000000000000000000081526004016109c091906110f1565b60405180910390fd5b6109d560008383610bb0565b5050565b600073ffffffffffffffffffffffffffffffffffffffff168473ffffffffffffffffffffffffffffffffffffffff1603610a4b5760006040517fe602df05000000000000000000000000000000000000000000000000000000008152600401610a4291906110f1565b60405180910390fd5b600073ffffffffffffffffffffffffffffffffffffffff168373ffffffffffffffffffffffffffffffffffffffff1603610abd5760006040517f94280d62000000000000000000000000000000000000000000000000000000008152600401610ab491906110f1565b60405180910390fd5b81600160008673ffffffffffffffffffffffffffffffffffffffff1673ffffffffffffffffffffffffffffffffffffffff16815260200190815260200160002060008573ffffffffffffffffffffffffffffffffffffffff1673ffffffffffffffffffffffffffffffffffffffff168152602001908152602001600020819055508015610baa578273ffffffffffffffffffffffffffffffffffffffff168473ffffffffffffffffffffffffffffffffffffffff167f8c5be1e5ebec7d5bd14f71427d1e84f3dd0314c0f7b2291e5b200ac8c7c3b92584604051610ba19190610fa5565b60405180910390a35b50505050565b600073ffffffffffffffffffffffffffffffffffffffff168373ffffffffffffffffffffffffffffffffffffffff1603610c02578060026000828254610bf69190611356565b92505081905550610cd5565b60008060008573ffffffffffffffffffffffffffffffffffffffff1673ffffffffffffffffffffffffffffffffffffffff16815260200190815260200160002054905081811015610c8e578381836040517fe450d38c000000000000000000000000000000000000000000000000000000008152600401610c85939291906112f0565b60405180910390fd5b8181036000808673ffffffffffffffffffffffffffffffffffffffff1673ffffffffffffffffffffffffffffffffffffffff16815260200190815260200160002081905550505b600073ffffffffffffffffffffffffffffffffffffffff168273ffffffffffffffffffffffffffffffffffffffff1603610d1e5780600260008282540392505081905550610d6b565b806000808473ffffffffffffffffffffffffffffffffffffffff1673ffffffffffffffffffffffffffffffffffffffff168152602001908152602001600020600082825401925050819055505b8173ffffffffffffffffffffffffffffffffffffffff168373ffffffffffffffffffffffffffffffffffffffff167fddf252ad1be2c89b69c2b068fc378daa952ba7f163c4a11628f55a4df523b3ef83604051610dc89190610fa5565b60405180910390a3505050565b600081519050919050565b600082825260208201905092915050565b60005b83811015610e0f578082015181840152602081019050610df4565b60008484015250505050565b6000601f19601f8301169050919050565b6000610e3782610dd5565b610e418185610de0565b9350610e51818560208601610df1565b610e5a81610e1b565b840191505092915050565b60006020820190508181036000830152610e7f8184610e2c565b905092915050565b600080fd5b600073ffffffffffffffffffffffffffffffffffffffff82169050919050565b6000610eb782610e8c565b9050919050565b610ec781610eac565b8114610ed257600080fd5b50565b600081359050610ee481610ebe565b92915050565b6000819050919050565b610efd81610eea565b8114610f0857600080fd5b50565b600081359050610f1a81610ef4565b92915050565b60008060408385031215610f3757610f36610e87565b5b6000610f4585828601610ed5565b9250506020610f5685828601610f0b565b9150509250929050565b60008115159050919050565b610f7581610f60565b82525050565b6000602082019050610f906000830184610f6c565b92915050565b610f9f81610eea565b82525050565b6000602082019050610fba6000830184610f96565b92915050565b600080600060608486031215610fd957610fd8610e87565b5b6000610fe786828701610ed5565b9350506020610ff886828701610ed5565b925050604061100986828701610f0b565b9150509250925092565b600060ff82169050919050565b61102981611013565b82525050565b60006020820190506110446000830184611020565b92915050565b600061105582610e8c565b9050919050565b6110658161104a565b811461107057600080fd5b50565b6000813590506110828161105c565b92915050565b60006020828403121561109e5761109d610e87565b5b60006110ac84828501611073565b91505092915050565b6000602082840312156110cb576110ca610e87565b5b60006110d984828501610ed5565b91505092915050565b6110eb81610eac565b82525050565b600060208201905061110660008301846110e2565b92915050565b6000806040838503121561112357611122610e87565b5b600061113185828601610ed5565b925050602061114285828601610ed5565b9150509250929050565b7f4e487b7100000000000000000000000000000000000000000000000000000000600052602260045260246000fd5b6000600282049050600182168061119357607f821691505b6020821081036111a6576111a561114c565b5b50919050565b600081905092915050565b50565b60006111c76000836111ac565b91506111d2826111b7565b600082019050919050565b60006111e8826111ba565b9150819050919050565b7f4661696c656420746f2073656e64204574686572000000000000000000000000600082015250565b6000611228601483610de0565b9150611233826111f2565b602082019050919050565b600060208201905081810360008301526112578161121b565b9050919050565b7f56616c75652073656e74206d7573742062652067726561746572207468616e2060008201527f3000000000000000000000000000000000000000000000000000000000000000602082015250565b60006112ba602183610de0565b91506112c58261125e565b604082019050919050565b600060208201905081810360008301526112e9816112ad565b9050919050565b600060608201905061130560008301866110e2565b6113126020830185610f96565b61131f6040830184610f96565b949350505050565b7f4e487b7100000000000000000000000000000000000000000000000000000000600052601160045260246000fd5b600061136182610eea565b915061136c83610eea565b925082820190508082111561138457611383611327565b5b9291505056fea2646970667358221220e8a201bcc1f0eb61de7825696cad36f5627f2caf1c8490fb0e37822f179100fe64736f6c63430008140033",
  "linkReferences": {},
  "deployedLinkReferences": {}
}